:1000000063C000007FC000007DC000007BC0000016
:1000100079C0000077C0000075C0000073C0000008
:1000200071C000006FC000006DC000006BC0000018
:1000300069C000009DC0000065C0000063C00000F2
:1000400061C000005FC000005DC000005BC0000038
:1000500059C0000057C0000055C0000053C0000048
:1000600051C000004FC000004DC000004BC0000058
:1000700049C0000047C0000045C0000043C0000068
:1000800041C000003FC000003DC0000051045704C3
:1000900060046F047E048D0496049F04A804B804D1
:1000A000C104CA04D304DC04EC04F60414054605B8
:1000B00075058A05AA05CA05DF050E063D066C060C
:1000C0009B06CA06F9060E0711241FBECFEFD0E427
:1000D000DEBFCDBF11E0A0E0B1E0EAE1F1E100E078
:1000E0000BBF02C007900D92A83CB107D9F721E0E1
:1000F000A8ECB1E001C01D92AA3FB207E1F725D7F5
:100100000C948B087DCF609363017093640180939E
:100110006501909366016093F5017093F6018093F9
:10012000F7019093F80108958BE0809381008DE7AB
:1001300090E0909389008093880082E080936F0024
:100140001092850010928400809163019091640167
:10015000A0916501B09166018093F5019093F6013D
:10016000A093F701B093F8018FB780688FBF08950F
:100170001F920F920FB60F9211248F939F93AF93FC
:10018000BF938091F5019091F601A091F701B09194
:10019000F8010197A109B1098093F5019093F60147
:1001A000A093F701B093F801892B8A2B8B2B99F43C
:1001B00081E08093F9018091630190916401A091A5
:1001C0006501B09166018093F5019093F601A093CB
:1001D000F701B093F801BF91AF919F918F910F906C
:1001E0000FBE0F901F90189520E030E058E0E82FE8
:1001F000F0E055B945B1BF01022E02C07595679573
:100200000A94E2F7962F9170942B95B9299A2F5F53
:100210003F4F2830310569F72A9A15B8089520B163
:100220002095207130B13095307240B140954074C6
:1002300050B15095507882309105A9F03CF4009768
:1002400009F498C08130910529F016C087309105D6
:1002500044F112C0211125C0311123C0411121C028
:1002600051111FC0089521112BC031113FC0411100
:100270006AC0511151C015C084309105B9F144F4E0
:100280008230910571F08330910509F075C018C076
:100290008530910509F457C08630910509F43CC0BA
:1002A000089580916001A0DF80915F018BB981E0AA
:1002B00090E09093F2018093F10182E090E0089544
:1002C00080916001833019F0869580936001809160
:1002D00060018ADF80915F018BB981E090E09093AB
:1002E000F2018093F10183E090E008958091600134
:1002F000803C19F0880F809360018091600174DF69
:1003000080915F018BB981E090E09093F20180933E
:10031000F10184E090E0089580915F018F3321F036
:10032000880F816080935F01809160015DDF809123
:100330005F018BB981E090E09093F2018093F1012D
:1003400086E090E0089580915F018C3F21F08695D2
:10035000806880935F018091600146DF80915F013A
:100360008BB981E090E09093F2018093F10185E0F8
:1003700090E0089581E090E0089580E480937C000F
:1003800087E880937A000895ECE7F0E09081987F09
:100390008770892B8083EAE7F0E080818064808326
:1003A000808186FDFDCF809178009091790008953D
:1003B000BF92CF92DF92EF92FF920F931F93CF9352
:1003C000DF93141615060CF048C0B0906201E0905F
:1003D0006101F12CC82FD92FFB01640F751FCC24AC
:1003E000C394D12C89918B1134C0222391F180E0E8
:1003F00090E0AF01DC01BB2787010A2E02C01595F2
:1004000007950A94E2F700FD20C03081032F10E029
:100410000A2E02C0159507950A94E2F700FD15C053
:10042000860102C0000F111FAA95E2F7302BDA01F6
:100430003C93A091F301B091F401A333B1052CF4E6
:100440001196B093F401A093F301019688309105C1
:1004500089F631966E177F0729F6DF91CF911F91AC
:100460000F91FF90EF90DF90CF90BF900895CF93C2
:10047000DF93EB0114161506F4F470916201E82F76
:10048000F92F80E090E0DC013191371310C0222376
:1004900071F08091610180FD0FC0AC0FBD1F8C9188
:1004A00080FD0DC081608C9381E090E00AC00196D0
:1004B0004817590741F705C080E090E002C080E08E
:1004C00090E0DF91CF91089581E05EDF803223E0FC
:1004D000920728F48536910520F482E0089581E0A2
:1004E000089580E0089580E04FDF803223E0920796
:1004F00028F48536910520F488E0089584E0089575
:1005000080E00895CF93DF93EC0137DFC130D10550
:1005100041F01CF4209751F116C0C630D10534F1DA
:1005200012C0D2DFC82FD0E0DEDFC130D10509F420
:1005300046C0229709F454C090E084309105F9F048
:100540000897A1F42CC0C330D10549F13CF4C13067
:10055000D10561F0C230D10591F052C0C430D1054F
:1005600071F1C530D10509F43BC04AC080916201E8
:100570003BDE809161018BB9C1E0D0E041C0809148
:100580006201813019F08695809362018091620149
:100590002BDE809161018BB9C2E0D0E031C0809147
:1005A0006201803819F0880F8093620180916201A6
:1005B0001BDE809161018BB9C3E0D0E021C0809146
:1005C00061018F3721F0880F8160809361018091F4
:1005D00062010ADE809161018BB9C4E0D0E010C0F5
:1005E000809161018E3F21F0869580688093610142
:1005F00080916201F9DD809161018BB9C5E0D0E0A5
:10060000CE01DF91CF9108956F927F929F92AF922A
:10061000BF92CF92DF92EF92FF920F931F93CF93EF
:10062000DF93141615060CF05DC0E0916001F0E058
:10063000C0915F016C2E712C082F192FDB015B011B
:10064000A40EB51ECC24C394D12C48C09C013327E2
:10065000AF01022E02C0559547950A94E2F740FF7C
:1006600032C0E801488150E0BA0102C07595679533
:100670002A95E2F760FF27C020E030E0A901552766
:10068000B301042E02C0759567950A94E2F760FDE8
:1006900015C09C90692D70E0042E02C07595679579
:1006A0000A94E2F760FD0AC0E60102C0CC0FDD1F2C
:1006B0004A95E2F7AE014929E70148832F5F3F4F92
:1006C00028303105D9F601968830910509F0BECF62
:1006D0000F5F1F4F1196AA16BB0621F080E090E035
:1006E0007D01B4CFDF91CF911F910F91FF90EF90DB
:1006F000DF90CF90BF90AF909F907F906F900895C4
:1007000088EE93E09093EC018093EB0180ED97E00D
:100710009093EA018093E901089580E580935E015A
:1007200084E080935D0185E0E2ECF1E0A8E5B1E0D2
:1007300001900D928A95E1F785E0EDEBF1E0A3E5FC
:10074000B1E001900D928A95E1F78091BB01909103
:10075000BC0190935201809351018091B901909115
:10076000BA019093500180934F018091B70190910D
:10077000B80190934E0180934D018091B501909105
:10078000B60190934C0180934B018091B2019091FE
:10079000B301A091B4018093480190934901A093C3
:1007A0004A018091AF019091B001A091B101809375
:1007B000450190934601A09347018091AC0190912F
:1007C000AD01A091AE018093420190934301A093AB
:1007D00044018091A9019091AA01A091AB0180935D
:1007E0003F0190934001A093410188E0E1EAF1E0EC
:1007F000A7E3B1E001900D928A95E1F788E0E9E97D
:10080000F1E0AFE2B1E001900D928A95E1F787E067
:10081000E2E9F1E0A8E2B1E001900D928A95E1F7FA
:1008200087E0EBE8F1E0A1E2B1E001900D928A955A
:10083000E1F788E0E3E8F1E0A9E1B1E001900D9291
:100840008A95E1F788E0EBE7F1E0A1E1B1E0019002
:100850000D928A95E1F787E0E4E7F1E0AAE0B1E0E4
:1008600001900D928A95E1F787E0EDE6F1E0A3E0D3
:10087000B1E001900D928A95E1F70895EF92FF9211
:100880000F931F93CF93DF9330B120B12095C22FE8
:10089000C4708F30910508F0A9C0FC01EA5BFF4FDE
:1008A00031C4309533FB442740F950E097C0809124
:1008B000EF019091F001883E93400CF0E7C0B4C086
:1008C0008091EF019091F0012091EB013091EC01CA
:1008D000821B930B803D97400CF4D8C006C18091D9
:1008E000EF019091F0012091EB013091EC01821B1E
:1008F000930B843C99400CF4F8C00CC18091EF013B
:100900009091F0012091E9013091EA01821B930B53
:100910008C3A9D400CF4FEC01DC18091EF01909176
:10092000F001843991410CF415C134C18091EF017B
:100930009091F0018C3795410CF42CC140C180910D
:10094000EF019091F001843699410CF438C166C1F1
:100950008091EF019091F00188359B410CF45EC1CC
:100960008091ED019091EE01892B09F486C1E3C1DC
:100970008091EF019091F001843391420CF47DC19C
:10098000ABC18091EF019091F001803197420CF45E
:10099000A3C12FC28091EF019091F0018433914265
:1009A0000CF4C9C1F7C18091EF019091F001803141
:1009B00097420CF4EFC11DC28091EF019091F001BC
:1009C000883F9A420CF415C28091ED019091EE019E
:1009D000892B09F423C20AC041E050E04F30510591
:1009E00008F0ABC2FA01EB5AFF4F8CC396DE1092AF
:1009F000F0011092EF011092F4011092F3011092A5
:100A0000EC011092EB011092EA011092E9011092B0
:100A1000EE011092ED01CFEFC093020180E0E4DB24
:100A2000CBB940E050E089C28091EF019091F00194
:100A300001969093F0018093EF018091ED019091E8
:100A4000EE01892B61F02C2F41E050E060E071E075
:100A500081E091E00CDD892B11F052DEEDC12C2FED
:100A600041E050E06EE571E08DE591E0A1DC809120
:100A7000F1019091F201892B09F4DEC141E050E0CF
:100A80006EE571E08DE591E0BFDDD6C18091EF01AB
:100A90009091F00101969093F0018093EF012C2F3B
:100AA00045E050E068E571E083E591E081DC80910C
:100AB000F1019091F201892B09F4CAC145E050E09F
:100AC00068E571E083E591E09FDDC2C189918CDB2F
:100AD000F80181918F018BB9CE15DF05B9F78091AF
:100AE000F30188B942E050E028C28091EF01909173
:100AF000F00101969093F0018093EF01CFEFC09346
:100B0000020180E071DBCBB98091F30188B943E049
:100B100050E013C28091EF019091F0010196909303
:100B2000F0018093EF012C2F42E050E061E571E08D
:100B30008FE491E03DDC8091F1019091F201892BED
:100B400009F491C142E050E061E571E08FE491E089
:100B50005BDD89C18091EF019091F0010196909346
:100B6000F0018093EF012C2F42E050E06DE471E042
:100B70008BE491E01DDC8091F1019091F201892BD1
:100B800009F485C142E050E06DE471E08BE491E04E
:100B90003BDD7DC18091EF019091F0010196909332
:100BA000F0018093EF01CFEFC093020180E01CDBE6
:100BB000CBB98091F30188B946E050E0BEC1809185
:100BC000EF019091F00101969093F0018093EF0175
:100BD0002C2F43E050E068E471E085E491E0E8DB2D
:100BE0008091F1019091F201892B09F464C143E0F5
:100BF00050E068E471E085E491E006DD5CC1899134
:100C0000F3DAF80181918F018BB9EC16FD06B9F783
:100C10008091F30188B947E050E08FC18091EF01E6
:100C20009091F00101969093F0018093EF012C2FA9
:100C300043E050E062E471E08FE391E0B9DB809142
:100C4000F1019091F201892B09F440C143E050E099
:100C500062E471E08FE391E0D7DC38C18991C4DAB6
:100C6000F80181918F018BB9EC16FD06B9F78091DF
:100C7000F30188B948E050E060C18091EF019091A4
:100C8000F00101969093F0018093EF012C2F48E042
:100C900050E067E371E08FE291E08ADB8091F1013F
:100CA0009091F201892B09F41CC148E050E067E300
:100CB00071E08FE291E0A8DC14C1899195DAF80126
:100CC00081918F018BB9EC16FD06B9F78091F30184
:100CD00088B949E050E031C18091EF019091F00175
:100CE00001969093F0018093EF012C2F47E050E0A4
:100CF00068E271E081E291E05BDB8091F10190912B
:100D0000F201892B09F4F8C047E050E068E271E095
:100D100081E291E079DCF0C0899166DAF801819195
:100D20008F018BB9EC16FD06B9F78091F30188B9F4
:100D30004AE050E002C18091EF019091F0010196EC
:100D40009093F0018093EF012C2F48E050E069E18F
:100D500071E081E191E02CDB8091F1019091F20151
:100D6000892B09F4D4C048E050E069E171E081E1E9
:100D700091E04ADCCCC0899137DAF80181918F018A
:100D80008BB9EC16FD06B9F78091F30188B94BE0F9
:100D900050E0D3C08091EF019091F00101969093C3
:100DA000F0018093EF012C2F47E050E06AE071E002
:100DB00083E091E0FDDA8091F1019091F201892BBD
:100DC00009F4B0C047E050E06AE071E083E091E0F0
:100DD0001BDCA8C0899108DAF80181918F018BB9D9
:100DE000CE15DF05B9F78091F30188B94CE050E0EA
:100DF000A4C08091EF019091F00101969093F001D1
:100E00008093EF01CFEFC093020180E0EDD9CBB921
:100E10008091F30188B94DE050E08FC01092F0014D
:100E20001092EF0181E090E09093EE018093ED014C
:100E300074DC4EE050E081C080915D01D5D9809195
:100E40005E018BB98091F30188B941E050E075C033
:100E5000C3E5D1E008E511E00F2EF8E5EF2EF1E053
:100E6000FF2EF02D33CE0FE411E0F8018081BCD9C4
:100E7000C1E5D1E088818BB9F8018181B5D989813B
:100E80008BB98091F30188B944E050E056C00BE47F
:100E900011E0F8018081A8D9CDE4D1E088818BB937
:100EA000F8018181A1D989818BB98091F30188B939
:100EB00045E050E042C0C5E4D1E008E411E00F2E67
:100EC000F8E4EF2EF1E0FF2EF02D99CECFE3D1E044
:100ED00002E411E00F2EF2E4EF2EF1E0FF2EF02DF0
:100EE000BDCECFE2D1E007E311E00F2EF7E3EF2E06
:100EF000F1E0FF2EF02DE1CEC1E2D1E008E211E0F9
:100F00000F2EF8E2EF2EF1E0FF2EF02D05CFC1E11C
:100F1000D1E009E111E00F2EF9E1EF2EF1E0FF2E13
:100F2000F02D29CFC3E0D1E00AE011E00F2EFAE066
:100F3000EF2EF1E0FF2EF02D4DCFCA01DF91CF91C2
:100F40001F910F91FF90EF900895CF93DF9300D002
:100F500000D000D0CDB7DEB711B88FEF82B984B919
:100F600015B887B918B88AB91BB80F2EFBE4CF2E75
:100F7000D12CE12CF12CF02D39E120E080E090E043
:100F8000632F722FA70196019BD0582F492F3C2D1C
:100F90002D2D8E2D9F2DC62ED72EE52EF42EC1146D
:100FA000D104E104F10461F786E0E7E6F1E0DE0157
:100FB000119601900D928A95E1F7EEEDF1E0108225
:100FC00089E190E0A0E0B0E081839283A383B483C1
:100FD00085839683A783B08782E892E09287818792
:100FE000E3EDF1E010828BE490E0A0E0B0E08183DB
:100FF0009283A383B48385839683A783B0878FE08E
:1010000091E092878187E8ECF1E0108281E090E046
:10101000A0E0B0E081839283A383B4838583968329
:10102000A783B0878EE394E092878187A6D961E099
:1010300070E080E090E067D877D87E0187E0E80E26
:10104000F11CDE0111966D01F601019111916F0104
:10105000D80115964D915D916D917C9118971196DF
:101060008D919D910D90BC91A02D481759076A074D
:101070007B0781F4F80180810184F285E02D082E40
:10108000000C990B0995D8018C93F80115821682F2
:1010900017821086F80185819681A781B085019617
:1010A000A11DB11D85839683A783B087CE14DF046D
:1010B00059F68091F9018823E1F31092F901C1CF2B
:1010C000A1E21A2EAA1BBB1BFD010DC0AA1FBB1F4C
:1010D000EE1FFF1FA217B307E407F50720F0A21BBE
:1010E000B30BE40BF50B661F771F881F991F1A942B
:1010F00069F760957095809590959B01AC01BD0155
:10110000CF010895EE0FFF1F0024001C0BBE0790B7
:0A111000F691E02D0994F894FFCF4A
:10111A00FE04FF80402010080402FEFDFBF7CFBF4B
:10112A007F0102040810204080FEFDFBF7EFDFBFBD
:10113A007F804020100804027FBFDFEFF3FDFE012D
:10114A00020408102040807FBFDFEFF7FBFDFE207E
:10115A004080DFEFF7204080FAFBFA40207F510100
:10116A0004AF0F0102041020FEFEFEFEF50450FC3F
:10117A00C07F8001000000DE01D301C80180402049
:10118A0010080402FEFDFBF7CFBF7F01020408101E
:10119A00204080FEFDFBF7EFDFBF7F804020100874
:1011AA0004027FBFDFEFF3FDFE01020408102040B6
:1011BA00807FBFDFEFF7FBFDFE204080DFEFF720E7
:1011CA004080FAFBFA40207F510104AF0F0102046C
:0811DA001020FEFEFEFEF500F0
:00000001FF
